:020000040800F2
:1000000078070020A13B0008950700089707000823
:100010009B0700089F070008A307000800000000D6
:10002000000000000000000000000000A70700081A
:10003000A907000800000000AB070008AD07000892
:10004000BB3B0008BB3B0008BB3B0008BB3B0008B8
:10005000BB3B0008BB3B0008AF070008BB3B0008E8
:10006000BB3B0008BB3B0008BB3B0008BB3B000898
:10007000BB3B0008BB3B0008BB3B0008BB3B000888
:10008000BB3B0008BB3B0008BB3B0008BB3B000878
:10009000BB3B0008BB3B0008BB3B0008BB3B000868
:1000A000BB3B0008BB3B0008BB3B0008BB3B000858
:1000B000BB3B0008BB3B0008BB3B0008BB3B000848
:1000C000BB3B0008BB3B0008BB3B0008BB3B000838
:1000D000BB3B000881630008BB3B0008BB3B00083A
:1000E000BB3B0008BB3B0008BB3B0008BB3B000818
:1000F000BB3B0008BB3B0008BB3B0008BB3B000808
:10010000BB3B0008BB3B0008BB3B0008BB3B0008F7
:10011000BB3B0008135F0008BB3B0008BB3B00086B
:10012000BB3B0008BB3B0008BB3B0008BB3B0008D7
:1001300000F002F800F03FF80AA090E8000C8244BA
:100140008344AAF10107DA4501D100F034F8AFF297
:10015000090EBAE80F0013F0010F18BFFB1A43F0A5
:10016000010318477471000094710000103A24BF15
:1001700078C878C1FAD8520724BF30C830C144BF0C
:1001800004680C607047000000230024002500264E
:10019000103A28BF78C1FBD8520728BF30C148BFEA
:1001A0000B607047642906F0E781002070471FB597
:1001B0001FBD10B510BD06F0D1FA1146FFF7F7FFCD
:1001C00000F04AF806F0EFFA03B4FFF7F2FF03BCC1
:1001D00006F0C8F810B5F3A006F08EF9F7480078DD
:1001E00002281CD100BF0420F54908602020F549F1
:1001F000486108610420F249091F08602020F14984
:100200004861086100BF00F07BFFEF4908700846B5
:100210000178EEA006F070F90020E849087010BDE2
:1002200010B5E6480078022815D100BF0420E44943
:1002300008602020E349486108610420E049091F63
:1002400008602020DF494861086100BF00F058FFC6
:100250000020DA49087010BD00BF4FF41651482045
:1002600006F0C9F800F04BFD00F0B4FD00BF00F04F
:10027000FDFD0128FBD105F04BFD05F0B1FDD74890
:1002800005F000FE06F039F800F0E8FD0020CB494B
:100290000870D349087001F076FB03F011FC09E106
:1002A00001F0A6FBFFF7BCFF4FF47A7005F06CFD80
:1002B000FFF7B6FF4FF47A7005F066FD01F0DEFB44
:1002C00001F022FC01F066FC01F0AAFC01F0EEFC5A
:1002D00001F032FD01F076FD01F0BAFD01F0FEFD06
:1002E00001F042FE01F086FE01F0CAFE01F052FC70
:1002F00001F096FC01F0DAFC01F01EFD01F062FD58
:1003000001F0A6FD01F0EAFD01F02EFE01F072FE03
:1003100001F0B6FE01F03EFC01F082FC01F0C6FCEB
:1003200001F00AFD01F04EFD01F092FD01F0D6FD55
:1003300001F01AFEFFF74EFF01F05CFE01F0A0FE97
:100340000020A7490870B4E09F480078012803D036
:100350009D480078022835D1A2480078002831D184
:1003600003F09EFBA0A006F0C7F8A1480078012882
:1003700013D1A0A006F0C0F899480078012809D14F
:1003800002F0A9FB02F0EDFB02F030FC02F073F981
:1003900002F0B7F903F01FFB12E09AA006F0ACF8E8
:1003A0008F480078012809D101F052FD01F096FD37
:1003B00001F0DAFD01F01EFE01F062FE03F02EF8FE
:1003C00003F076FB80480078032824D18548007824
:1003D00008BB03F065FB8FA006F08EF88448007818
:1003E00001280BD18DA006F087F87D48007810B960
:1003F00002F0F2FF0DE003F000F80AE08BA006F037
:100400007BF87748007810B902F0C4FF01E002F0F1
:10041000D2FF03F04DFB6C480078042803D06A48F3
:100420000078052839D16F480078002835D103F0CD
:1004300037FB82A006F060F86D480078012816D1DD
:1004400003F02EFB7FA006F057F86548007858B9F6
:1004500002F09DF902F0E1F902F025FA02F069FAE2
:1004600002F0ADFA02F0F1FA03F098FA13E003F0AB
:100470001FFB5B48007860B977A006F03DF801F0FB
:1004800089FB01F0CDFB01F011FC01F055FC01F0FE
:1004900099FC03F014F803F00BFB52480078012894
:1004A00007D14F48007810B902F096FF01E002F042
:1004B000A4FF49E7F4E610B56BA006F01DF83F482D
:1004C0000078022846D100BF04203D490860202062
:1004D0003C494861086104203949091F086020200F
:1004E00038494861086100BF00F0E4FE63490870C4
:1004F000002032490870614800786E2803DA012034
:100500003849087002E00020364908705B480078DE
:100510004B2807DD59480078F02803DA01203449D8
:1005200008700DE055480078F02803DB00203049C2
:10053000087005E0514800784B2801DC03F010F802
:100540004E4801784EA005F0D7FF2948017850A009
:1005500005F0D2FF10BD10B552A005F0CDFF174831
:10056000007802281CD100BF042015490860202013
:1005700014494861086104201149091F08602020BE
:1005800010494861086100BF00F07DFF0E49087006
:100590000846017848A005F0AFFF00200749087021
:1005A00010BD00006A69616E6365302077755F7AFF
:1005B00068616E675F61692020200000B70000203D
:1005C000140801400010014000000020726573759E
:1005D0006C745F7775203D202564200040420F0039
:1005E0000100002002000020313132320D0A0000EB
:1005F00004000020796F75206C6566745F747572F5
:100600006E0D0A007775206C6566745F7475726E86
:100610000D0A0000333333330D0A0000796F752063
:10062000676F5F61686561640D0A00007775206718
:100630006F5F61686561640D0A0000003434353510
:100640000D0A0000796F752072696768745F7475B0
:10065000726E0D0A00000000777520726967687479
:100660005F7475726E0D0A006A69616E6365315F51
:1006700064697374616E63652020200006000020A9
:1006800064697374616E63653D25642020200000F9
:100690007A68616E6761695F666C61673D25640DAC
:1006A0000A0000006A69616E636532207A68616ED3
:1006B0006720616920202000726573756C745F7912
:1006C0006F753D25640D0A0010B52EA005F014FFCE
:1006D000FFF7F1FE2E48007810B9FFF77BFD01E02F
:1006E000FFF739FF10BD4CE0642005F07FFB4FF4AD
:1006F000FA7005F049FBC82005F078FB4FF4FA705A
:1007000005F042FB4FF4967005F070FB4FF4FA7061
:1007100005F03AFB4FF4C87005F068FB4FF4FA702F
:1007200005F032FB4FF4FA7005F060FB4FF4FA70FD
:1007300005F02AFB4FF4167005F058FB4FF4FA70E1
:1007400005F022FB4FF4FA7005F050FB4FF4FA70FD
:1007500005F01AFB4FF4C87005F048FB4FF4FA702F
:1007600005F012FB4FF4967005F040FB4FF4FA7061
:1007700005F00AFBC82005F039FB4FF4FA7005F0CC
:1007800003FBB1E76A69616E63650D0A0000000052
:1007900004000020704700BFFEE700BFFEE700BF77
:1007A000FEE700BFFEE7704770477047704710B51F
:1007B000012003F0F7FA08B31148007880B920202F
:1007C0001049086008201049086001200C49087091
:1007D00008200D49086020200A49091F08600AE026
:1007E00007480078012806D108200749091D08603C
:1007F000022003490870012003F0E5FA10BD000053
:10080000B7000020140C0140101401400CB500206A
:10081000019000906B48006840F48030694908609E
:1008200000BF6848006800F4003000900198401C48
:100830000190009818B90198B0F5A06FF1D1614806
:10084000006810F4003F02D00120009001E0002079
:1008500000900098012842D15B48006840F01000E9
:10086000594908600846006820F0030008600846FF
:10087000006840F0020008605248406851494860F2
:100880000846406848600846406840F48060486018
:100890000846406820F47C1048600846406840F4F0
:1008A000E81048600846006840F08070086000BFAB
:1008B0004448006810F0007FFAD04248406820F0B9
:1008C0000300404948600846406840F00200486024
:1008D00000BF3C48406800F00C000828F9D10CBD6E
:1008E00010B5FFF793FF10BD10B53648006840F013
:1008F00001003449086008464068344908403149DD
:10090000486008460068324908402E490860084699
:10091000006820F4802008600846406820F4FE004B
:1009200048604FF41F008860FFF7DAFF4FF0006067
:100930002849086010BD10B5002100200022214B7D
:100940005B6803F00C0121B1042906D0082928D1E5
:1009500007E0214B214C236027E01F4B1F4C2360F5
:1009600023E0184B5B6803F47010164B5B6803F4CC
:100970008032022303EB904022B9194B4343174CBA
:1009800023600DE00F4B5B6813F4003F04D0144B61
:100990004343124C236003E00F4B43430F4C23604F
:1009A00003E00D4B0D4C236000BF00BF054B5B689F
:1009B000C3F303130B4CE15C084B1B68CB40074CA3
:1009C000236010BD00100240002002400000FFF82C
:1009D000FFFFF6FE08ED00E000127A00080000209C
:1009E00000093D000C00002001B502E00098401E07
:1009F000009000980028F9D108BD08B5012108022F
:100A000003F0FFFF0121682004F008F810208DF8A2
:100A1000030003208DF802000220ADF800006946B3
:100A2000C24803F045FD0220ADF800006946C04809
:100A300003F03EFD03208DF8020018208DF803001E
:100A40004CF20370ADF800006946BA4803F030FD7F
:100A50004FF68070ADF800006946B54803F028FDF8
:100A60001020ADF800006946B24803F021FD2020B7
:100A7000ADF800006946AF4803F01AFD8020ADF8DC
:100A800000006946AB4803F013FD4FF40060ADF879
:100A900000006946A74803F00BFD0221A34803F0BC
:100AA000B4FD08BD00B597B002200190002002906F
:100AB0000520039000200490059006904FF0805090
:100AC000079000200890099008200A9010200B90B1
:100AD00000200C900E900F9010904FF480501190C9
:100AE000002012901390149001A81590169008A859
:100AF00003F0C1F90121002003F01EFB17B000BD77
:100B000010B502218A4803F080FD8B48FFF76CFF87
:100B10000221874803F077FD8748FFF765FF10BD86
:100B200000B5CF204FF0C0410880002083490880E5
:100B30008120088030200880ED204FF0C0410880DF
:100B400064207E49088003200880122008808120CC
:100B50000880E8204FF0C041088085207749088050
:100B60001020088078200880CB2041070880392099
:100B7000724908802C2008800020088034200880DA
:100B800002200880F7204FF0C041088020206B49E8
:100B90000880EA204FF0C0410880002067490880A3
:100BA0000880B1204FF0C0410880002063490880D0
:100BB0001B200880B620010708800A205F490880B2
:100BC000C2200880C020C105088035205B4908800C
:100BD000C1204FF0C0410880112058490880C5202D
:100BE0004FF0C04108804520544908800880C72044
:100BF0004FF0C0410880A22050490880F2204FF0F9
:100C0000C041088000204D49088026200107088047
:100C100001204A490880E0204FF0C04108800F20A1
:100C20004649088026200880242008800B20088060
:100C30000E2008800920088054200880A820088001
:100C4000462008800C200880172008800920088092
:100C50000F2008800720088000200880E1204FF046
:100C6000C0410880002035490880192008801B20D9
:100C700008800420088010200880072008802A208F
:100C8000088047200880392008800320088006203B
:100C90000880088030200880382008800F200880D5
:100CA0003620010708806820244908802A204FF058
:100CB000C041088000202149088008800120088068
:100CC0003F2008802B204107088000201B49088016
:100CD00008800880EF2008803A204FF0C04108804B
:100CE00055201649088011204FF0C0410880124855
:100CF000FFF77AFE29204FF0C041088000BD10B5F3
:100D0000FFF77BFEFFF7CEFEFFF7FAFEFFF708FFC7
:100D10002C20C1060880002404E04FF478400749E5
:100D20000880641CB4F5963FF7D310BD000C014059
:100D30000018014000140140FCBF020000000260E6
:100D400008B501213C2003F069FE10208DF8030056
:100D500003208DF802004FF48070ADF80000694662
:100D6000FE4803F0A5FB4FF48071FC4803F04BFCF8
:100D70000820ADF800006946F94803F099FB2020EF
:100D8000ADF800006946F74803F092FB0C20ADF87F
:100D900000006946F14803F08BFB2020ADF800000D
:100DA0006946F14803F084FB4FF47F40ADF8000042
:100DB00004208DF8030003208DF802006946E948FD
:100DC00003F076FB0820E54914310860E44910314E
:100DD000086008BD10B500F067FCFFF7B1FF10BD5B
:100DE00008B50121042003F019FE0120ADF8000030
:100DF00004208DF8030003208DF802006946D748CF
:100E000003F056FB08BD08B54FF4C06002F0E8FEE1
:100E100006208DF8000000208DF8010001208DF8DB
:100E200002008DF80300684602F0DFFE08BD1CB525
:100E30000021084603F050FC0120009000208DF8AE
:100E400004000C208DF8050001208DF8060068468E
:100E500002F042FF012002F08EFF1CBD10B5FFF72B
:100E6000BFFFFFF7E4FFFFF7CEFF10BD38B500244A
:100E7000002000908021122000F01CFD08B9002005
:100E800038BD0B220121684600F034FD08B900206E
:100E9000F6E79DF80000212814D100240DE0B34AA4
:100EA00002EB44025178B14A12F8140000F002FD3E
:100EB00008B90020E4E7601C84B2AD4800788442A1
:100EC000EDDB01E00020DBE70120D9E7F0B50C46BF
:100ED000002118E00B464E1CF2B208E050F82260E8
:100EE00050F82370BE4200DA1346561CF2B2A242FA
:100EF000F4DB50F8215050F8236040F8216040F8AE
:100F000023504E1CF1B2A142E4DBF0BD2DE9FE43BB
:100F10000746884691460097CDF80480CDF80890A2
:100F200003216846FFF7D2FF029D009E019C281B0B
:100F3000142809DAA01B142806DA281930440321E2
:100F400090FBF1F0BDE8FE83281B142804DA291970
:100F500001EBD1704010F5E7A01B142804DAA219A8
:100F600002EBD2704010EDE70020EBE72DE9F041F5
:100F70008EB005461C2107A805F03AFB4FF000088B
:100F80001C21684605F034FB0026012400270024BC
:100F90001AE055F8240000B914E008F1010000F04F
:100FA000FF0855F8240007A941F82400601C55F8F3
:100FB000200055F82410401A0A2802DD601CC4B233
:100FC00004E000BF601CC4B2062CE2DB00BF15E0E9
:100FD00055F8240000B90FE0601C55F8200055F8C2
:100FE0002410401A082800DD06E055F824004DF8CA
:100FF0002600701CC6B200BF601CC4B2062CE7DB22
:101000005CA005F079FAB0450CDD002405E007A8E6
:1010100050F824000744601CC4B24445F7DB97FB3A
:10102000F8F70AE0002404E05DF824000744601C9F
:10103000C4B2B442F8DB97FBF6F738460EB0BDE811
:10104000F0812DE9F0418CB00546182106A805F085
:10105000CFFA4FF000081821684605F0C9FA0026BB
:1010600001240027002415E008F1010000F0FF082A
:1010700055F8240006A941F82400601C55F820000A
:1010800055F82410401A0A2802DD601CC4B203E09F
:10109000601CC4B2052CE7DB00BF11E0601C55F8F2
:1010A000200055F82410401A0A2800DD06E055F803
:1010B00024004DF82600701CC6B200BF601CC4B2EC
:1010C000052CEBDBB0450CDD002405E006A850F84C
:1010D00024000744601CC4B24445F7DB97FBF8F7D3
:1010E0000AE0002404E05DF824000744601CC4B258
:1010F000B442F8DB97FBF6F738460CB0BDE8F08158
:101100002DE9F04F97B0002400270026002016900C
:1011100015901490002511904FF0010910900F9038
:10112000302103A805F064FA00200290019000BF6E
:1011300084E009EB49000001B84201D1012011907F
:1011400009EB49000001401CB84216D109F1010029
:1011500000F0FF090020119010900DE00008014000
:1011600000140140000C0140001001401C00002050
:10117000B60000200D0A0000002500265AE000BF3E
:101180004FF000082020F8494861F848006800F452
:101190007F48202008614861F4480068C0F30720B8
:1011A00040EA08082020086100BF08F01F0AC8F3C1
:1011B000451B4FEAD8201390BAF10A0F05DABBF1AC
:1011C000140F02DA13980A281FDB4FF6FF701290F3
:1011D000119858B3082D16DD1E2D14DA0196DDE99D
:1011E0000161881900EBD0714A10A9F1010101EBEE
:1011F000410103AB03EB8103109943F821201098C0
:10120000401CC0B21090002510E0002012901198F0
:1012100060B105B90296681CC5B24FF47F401290C8
:10122000062D03DD1E2D01DAFF201290D049129801
:101230000880761CB6F5A07FA1DB7F1CF02FFFF69F
:1012400078AF03990698401A169006990998401AA3
:10125000159009990C98401A1490DDE914211698FC
:10126000FFF754FE04460F2C05DD502C03DC022052
:1012700017B0BDE8F08F062C03DD0F2C01DC012038
:10128000F6E714F10A0F03DD062C01DC0320EFE77B
:1012900014F10F0F04DD14F10A0F01DC0320E7E75E
:1012A00014F11E0F04DD14F10F0F01DC0320DFE742
:1012B0000320DDE72DE9F04F9DB01C2115A805F0B6
:1012C00097F91C210EA805F093F900200C900D90C1
:1012D0001C2105A805F08CF9A6A103C9CDE90301DD
:1012E0004FF0000B0025002002900190002485E0C3
:1012F00000267EE0282096FBF0F100FB116058B933
:1013000056B1B6F5A07F07D04FF0010B282096FB11
:10131000F0F0401EC5B201E04FF0000B00BF002707
:101320002020914948619148006800F47F472020BF
:10133000086148618D480068C0F3072007432020FA
:10134000086100BF07F01F08C7F345194FEAD72A05
:10135000B8F10A0F05DAB9F1170F02DABAF10A0F7C
:1013600017DB4FF6FF701C90BBF1000F3DD003A8B8
:10137000405DD0B30CA8405D072836DD0CA8405D69
:101380001E2832DA0EA840F82540002003A948554F
:101390002BE000201C90BBF1000F0DD04FF47F40DC
:1013A0001C900CA8405D10B915A840F825400CA869
:1013B000405D401C0CA94855EF2C16D103A8405D98
:1013C00098B10CA8405D0A280FDD0CA8405D1E28CE
:1013D0000BDA15A850F82500D22806DDEF200EA95B
:1013E00041F82500002003A9485561491C98088050
:1013F000761CB6F5A07FFFF67DAF641CF02CFFF6DF
:1014000077AF00240FE003A8005D58B115A850F88D
:101410002400C82806DDF0200EA941F82400002091
:1014200003A90855641C072CEDDB002415E015A961
:1014300051F824100EAA52F82420881800EBD0711D
:10144000491005AA42F8241005A850F8240018B144
:101450000298401CC0B20290641C072CE7DB029883
:10146000052803DCF0201DB0BDE8F08F072115A88A
:10147000FFF72CFD15A8FFF779FDC0F1F0000190F2
:101480000198C0B2EFE72DE9F04FA1B01C2119A8D7
:1014900005F0AEF81C2112A805F0AAF818210CA836
:1014A00005F0A6F800200A900B901C2103A805F077
:1014B0009FF830A103C9CDE901010020009000256B
:1014C000804600248AE0002683E0282096FBF0F185
:1014D00000FB116058B956B1B6F5A07F07D00120C6
:1014E0000090282096FBF0F0401EC5B201E00020DD
:1014F000009000BF002720201B4948611B4800685E
:1015000000F47F4720200861486118480068C0F354
:10151000072007432020086100BF07F01F09C7F319
:10152000451A4FEAD72BB9F10A0F05DABAF1170FAE
:1015300002DABBF10A0F21DB4FF6FF702090009812
:10154000F0B301A8405DD8B30AA8405D07283DDD8F
:101550000AA8405D1E2839DA12A840F8254000206C
:1015600001A9485532E0000000100140080C01407C
:101570000000026001010101010101000020209032
:101580000098E8B14FF47F4020900AA8405D10B960
:1015900019A840F825400AA8405D401C0AA94855F2
:1015A000EF2C13D101A8405D50B10AA8405D0A2874
:1015B0000CDD0AA8405D1E2808DAEF2012A900E021
:1015C00004E041F82500002001A948552B48078078
:1015D000761CB6F5A07FFFF678AF641CF02CFFF602
:1015E00072AF00240CE001A8005D40B119A850F8CA
:1015F0002500D22803DDF02012A941F82400641C44
:10160000072CF0DB00240DE019A951F8241012AAD0
:1016100052F82420881800EBD071491003AA42F830
:101620002410641C072CEFDB00240AE019A9601CBD
:1016300051F8200051F82410401A0CA941F8240058
:10164000641C062CF2DB06210CA8FFF73FFC0CA85B
:10165000FFF7F7FC8046414609A004F04DFFB8F1C2
:10166000060F03DB032021B0BDE8F08FB8F1FF3F88
:1016700001DA0120F7E70320F5E70000000002602F
:101680000D0AB8F9BEDDD5CFB0ADB5F7D5FBD7D4CF
:10169000BCBAB5C4CEBBD6C3A3BAD0B1C2CABDE131
:1016A000B9FB3D25640D0A0008B50121102003F0A7
:1016B000B5F9C020ADF8000003208DF80200142019
:1016C0008DF803006946AA4802F0F2FE08BD4FF407
:1016D000C87001E0411E88B20028FBD1704710B5E8
:1016E0008021A34802F08FFF4021A14802F08BFF28
:1016F000FFF7EDFF80219E4802F06BFF08B9002044
:1017000010BD80219A4802F080FFFFF7E0FF8021A2
:10171000974802F05EFF08B10020F1E7802194486D
:1017200002F073FFFFF7D3FF0120E9E710B5402176
:101730008F4802F06AFFFFF7CAFF80218C4802F051
:1017400064FFFFF7C4FF4021894802F05CFFFFF708
:10175000BEFF8021864802F056FFFFF7B8FF10BD9C
:1017600010B54021824802F050FFFFF7B0FF802102
:101770007F4802F04AFFFFF7AAFF40217C4802F0B1
:1017800042FFFFF7A4FF4021794802F03EFFFFF738
:101790009EFF10BD10B54021754802F036FFFFF7DF
:1017A00096FF8021724802F02EFFFFF790FF402144
:1017B0006F4802F028FFFFF78AFF40216C4802F0D3
:1017C00024FFFFF784FF10BD10B54021684802F0E8
:1017D0001CFFFFF77CFF8021654802F014FFFFF734
:1017E00076FF4021624802F00EFFFFF770FF802174
:1017F0005F4802F0EEFE28B140215D4802F005FF8F
:10180000002010BD40215A4802F0FFFE0120F8E7F9
:1018100070B5044608251BE04021554802F0F5FE4E
:10182000FFF755FF14F0800F04D08021504802F0DC
:10183000EAFE03E080214E4802F0E7FE6006040E57
:10184000FFF745FF40214A4802F0DDFEFFF73FFF6A
:101850002800A5F10101CDB2DED14021444802F0BB
:10186000D4FE70BD70B5082500248021404802F0E8
:10187000CAFE14E06006040E40213D4802F0C5FE99
:10188000FFF725FF40213A4802F0BDFEFFF71FFF9A
:101890008021374802F09DFE08B144F00104280081
:1018A000A5F10101CDB2E5D14021314802F0ADFEF4
:1018B000204670BD70B504460D46FFF710FF08B90D
:1018C000002070BD4220FFF7A3FFFFF77DFF18B98E
:1018D000FFF72CFF0020F4E7E0B2FFF799FFFFF7D6
:1018E00073FF2846FFF794FFFFF76EFFFFF71EFF19
:1018F0000120E6E770B505460C461646FFF7EFFEF9
:1019000008B9002070BD4220FFF782FFFFF75CFF9F
:1019100018B9FFF70BFF0020F4E73046FFF778FF18
:10192000FFF752FFFFF702FFFFF7D9FE08B90020CB
:10193000E8E74320FFF76CFFFFF746FF18B9FFF712
:10194000F5FE0020DEE70CE0FFF78CFF2870012C8D
:1019500002D1FFF71FFF01E0FFF702FF6D1C601EC1
:1019600084B2002CF0D1FFF7E1FE0120CAE70000AD
:101970000010014001B502E00098401E0090009860
:101980000028F9D108BD08B50121102003F046F860
:101990004FF40050ADF8000048208DF80300694670
:1019A000124802F085FD08BD70B505460E46144686
:1019B0003146284602F00DFEA04214D142F21070CA
:1019C000FFF7D8FF3146284602F003FEA04208D1B7
:1019D00000BF3146284602F0FCFDA042F9D00020AD
:1019E00070BD0120FCE70120FAE700000010014073
:1019F00010B500243FE096224FF40071012004F05E
:101A0000E0FB96224FF4EB71022004F0DAFB962201
:101A100040F20B11032004F0D4FB96224FF4E27144
:101A2000042004F0CEFB962240F2F711052004F0CA
:101A3000C8FB96224FF400710B2004F0C2FB9622E3
:101A40004FF409710C2004F0BCFB962240F2DB211C
:101A50000D2004F0B6FB962240F24A210E2004F03D
:101A6000B0FB96224FF401710F2004F0AAFB04F0A2
:101A7000F9FB601CC4B2142CBDDB10BD10B50024F2
:101A80003FE096224FF40071012004F09AFB962269
:101A90004FF4EA71022004F094FB96224FF4857112
:101AA000032004F08EFB962240F2C511042004F0BE
:101AB00088FB96224FF41A71052004F082FB9622CF
:101AC0004FF400710B2004F07CFB962240F22121A0
:101AD0000C2004F076FB962240F2DB210D2004F06E
:101AE00070FB96224FF413710E2004F06AFBC8229B
:101AF00040F21B210F2004F064FB04F0B3FB601CD8
:101B0000C4B2142CBDDB10BD10B500243FE09622FA
:101B10004FF40071012004F054FB96224FF4EC7155
:101B2000022004F04EFB962240F20D11032004F037
:101B300048FB962240F2C511042004F042FB962295
:101B400040F2F711052004F03CFB96224FF400719F
:101B50000B2004F036FB96224FF408710C2004F0A1
:101B600030FB962240F2D9210D2004F02AFB962268
:101B700040F24E210E2004F024FB962240F2462132
:101B80000F2004F01EFB04F06DFB601CC4B2142C8B
:101B9000BDDB10BD10B500243FE032224FF40071D0
:101BA000012004F00EFB322240F2CB11022004F09F
:101BB00008FB322240F23B11032004F002FB3222E8
:101BC0004FF4E371042004F0FCFA322240F2522177
:101BD000052004F0F6FA32224FF400710B2004F0D5
:101BE000F0FA32224FF4F1710C2004F0EAFA3222BA
:101BF00040F2E7210D2004F0E4FA322240F24E21B7
:101C00000E2004F0DEFA322240F243210F2004F0CD
:101C1000D8FA04F027FB601CC4B2142CBDDB10BD45
:101C200010B500243FE064224FF40071012004F05D
:101C3000C8FA28224FF4E571022004F0C2FA2822E3
:101C400040F23D11032004F0BCFA28224FF4E57164
:101C5000042004F0B6FA282240F23A21052004F0CC
:101C6000B0FA28224FF400710B2004F0AAFA2822BF
:101C70004FF4F0710C2004F0A4FA282240F2E52180
:101C80000D2004F09EFA28224FF416710E2004F065
:101C900098FA282240F20F210F2004F092FA04F063
:101CA000E1FA601CC4B2372CBDDB10BD10B50024B6
:101CB0003FE050224FF40071012004F082FA5022DC
:101CC0004FF4E871022004F07CFA502240F23F11F8
:101CD000032004F076FA502240F2A511042004F00B
:101CE00070FA50224FF4FD71052004F06AFA502278
:101CF0004FF400710B2004F064FA502240F2DF111F
:101D00000C2004F05EFA502240F2E1210D2004F094
:101D100058FA502240F27D210E2004F052FA50224F
:101D20004FF400710F2004F04CFA04F09BFA601C91
:101D3000C4B2372CBDDB10BD10B500243FE09622A5
:101D40004FF40071012004F03CFA962240F2CB11CE
:101D5000022004F036FA96224FF49F71032004F01B
:101D600030FA96224FF4CF71042004F02AFA96221A
:101D700040F2E911052004F024FA96224FF4007194
:101D80000B2004F01EFA962240F2EF110C2004F012
:101D900018FA96224FF438710D2004F012FA9622A8
:101DA00040F27B210E2004F00CFA962240F2A3119F
:101DB0000F2004F006FA04F055FA601CC4B2142C8B
:101DC000BDDB10BD10B500243FE096224FF400713A
:101DD000012004F0F6F9962240F2CB11022004F023
:101DE000F0F996224FF49F71032004F0EAF996224D
:101DF0004FF4CF71042004F0E4F996224FF4E1711E
:101E0000052004F0DEF996224FF400710B2004F057
:101E1000D8F9962240F2EF110C2004F0D2F9962264
:101E20004FF438710D2004F0CCF9962240F27B215A
:101E30000E2004F0C6F9962240F2A3110F2004F000
:101E4000C0F904F00FFA601CC4B2142CBDDB10BD45
:101E500010B500243FE050224FF40071012004F03F
:101E6000B0F9502240F21E21022004F0AAF95022BB
:101E700040F21911032004F0A4F950224FF4D97153
:101E8000042004F09EF950224FF4E071052004F084
:101E900098F950224FF400710B2004F092F950226F
:101EA00040F235210C2004F08CF9502240F2C5217B
:101EB0000D2004F086F9502240F23A210E2004F061
:101EC00080F9502240F2D3110F2004F07AF904F087
:101ED000C9F9601CC4B2372CBDDB10BD10B500249D
:101EE0003FE032224FF40071012004F06AF93222FF
:101EF0004FF40871022004F064F9322240F21B1101
:101F0000032004F05EF932224FF4D471042004F06F
:101F100058F9322240F2F111052004F052F9322230
:101F20004FF400710B2004F04CF9322240F23621BC
:101F30000C2004F046F9322240F2C3210D2004F0B7
:101F400040F9322240F239210E2004F03AF93222CF
:101F50004FF4E3710F2004F034F904F083F9601CAE
:101F6000C4B2372CBDDB10BD10B500243FE0962273
:101F70004FF40071012004F024F9962240F232213E
:101F8000022004F01EF9962240F21911032004F0F9
:101F900018F9962240F27711042004F012F99622E3
:101FA0004FF4FB71052004F00CF996224FF40071F8
:101FB0000B2004F006F996224FF408710C2004F06F
:101FC00000F9962240F2B3210D2004F0FAF896228F
:101FD00040F25D210E2004F0F4F896224FF4FD71DA
:101FE0000F2004F0EEF804F03DF9601CC4B2232C7D
:101FF000BDDB10BD10B500243FE096224FF4007108
:10200000012004F0DEF8962240F23221022004F092
:10201000D8F896224FF48D71032004F0D2F896225E
:102020004FF4BD71042004F0CCF896224FF41A71DD
:10203000052004F0C6F8962240F2FF110B2004F0B0
:10204000C0F896224FF408710C2004F0BAF89622DA
:102050004FF42C710D2004F0B4F8962240F25B216D
:102060000E2004F0AEF8962240F216210F2004F064
:10207000A8F804F0F7F8601CC4B2192CBDDB10BD41
:1020800010B500243FE032224FF40071012004F02B
:1020900098F832224FF4EC71022004F092F83222C8
:1020A00040F20D11032004F08CF8322240F2C511E9
:1020B000042004F086F8322240F2F711052004F0E3
:1020C00080F832224FF400710B2004F07AF83222AB
:1020D0004FF408710C2004F074F8322240F2D92138
:1020E0000D2004F06EF8322240F253210E2004F04D
:1020F00068F8322240F246210F2004F062F804F022
:10210000B1F8601CC4B2192CBDDB10BD10B50024A1
:102110003FE0962240F2E511012004F052F89622A9
:1021200040F2C311022004F04CF896224FF49F7144
:10213000032004F046F896224FF4D271042004F0F4
:1021400040F8962240F22921052004F03AF8962220
:1021500040F2FD110B2004F034F8962240F22121C8
:102160000C2004F02EF8962240F2D7210D2004F026
:1021700028F896224FF413710E2004F022F89622CC
:102180004FF411710F2004F01CF804F06BF8601C80
:10219000C4B2142CBDDB10BD10B500243EE02822D3
:1021A0004FF4F371012004F00CF8282240F2C11121
:1021B000022004F006F82822D100032004F001F8E0
:1021C000282240F2A511042003F0FBFF28224FF43F
:1021D000FF71052003F0F5FF282240F2F7110B20D4
:1021E00003F0EFFF282240F221210C2003F0E9FF49
:1021F000282240F2D7210D2003F0E3FF282240F2ED
:1022000052210E2003F0DDFF282240F205210F208D
:1022100003F0D7FF04F026F8601CC4B2192CBEDB13
:1022200010BD10B500243FE096224FF4F27101205A
:1022300003F0C7FF96224FF4E071022003F0C1FFC4
:1022400096224FF4A071032003F0BBFF96224FF4B7
:10225000D371042003F0B5FF962240F2E51105206A
:1022600003F0AFFF962240F2F7110B2003F0A9FF15
:10227000962240F221210C2003F0A3FF962240F287
:10228000D7210D2003F09DFF962240F251210E2010
:1022900003F097FF96224FF4C9710F2003F091FFCE
:1022A00003F0E0FF601CC4B2142CBDDB10BD10B500
:1022B00000243FE096224FF4F371012003F081FFE8
:1022C00096224FF4F071022003F07BFF96224FF428
:1022D0009371032003F075FF962240F2A1110420B0
:1022E00003F06FFF96224FF4F271052003F069FFAF
:1022F000962240F2F7110B2003F063FF962240F282
:1023000011210C2003F05DFF96224FF433710D2054
:1023100003F057FF962240F26B210E2003F051FF8D
:1023200096224FF4C9710F2003F04BFF03F09AFF80
:10233000601CC4B2142CBDDB10BD10B500243FE0FE
:1023400096224FF4F371012003F03BFF96224FF4E5
:10235000F271022003F035FF96224FF494710320AE
:1023600003F02FFF96224FF4CD71042003F029FFD4
:1023700096224FF4E171052003F023FF962240F2EC
:10238000F7110B2003F01DFF962240F211210C20C3
:1023900003F017FF96224FF433710D2003F011FF65
:1023A000962240F26B210E2003F00BFF96224FF491
:1023B000C9710F2003F005FF03F054FF601CC4B285
:1023C000142CBDDB10BD10B500243FE0962240F276
:1023D0000321012003F0F5FE962240F2DF110220D6
:1023E00003F0EFFE962240F22911032003F0E9FEEC
:1023F00096224FF4DA71042003F0E3FE96224FF4A4
:10240000DE71052003F0DDFE962240F21B210B2039
:1024100003F0D7FE962240F23D210C2003F0D1FEBE
:10242000962240F2C2210D2003F0CBFE96224FF4FB
:1024300017710E2003F0C5FE962240F2D7110F202F
:1024400003F0BFFE03F00EFF601CC4B2502CBDDBD6
:1024500010BD10B500243FE0322240F209210120D6
:1024600003F0AFFE322240F2DF11022003F0A9FE9A
:10247000322240F22911032003F0A3FE32224FF44E
:10248000D771042003F09DFE322240F2FB1105209B
:1024900003F097FE322240F21A210B2003F091FE46
:1024A000322240F23F210C2003F08BFE32224FF407
:1024B00030710D2003F085FE322240F25B210E20A8
:1024C00003F07FFE322240F202210F2003F079FE5A
:1024D00003F0C8FE601CC4B2502CBDDB10BD10B5AB
:1024E00000243FE0962240F20921012003F069FE1A
:1024F000962240F2DF11022003F063FE962240F2A2
:102500002911032003F05DFE962240F2AF11042052
:1025100003F057FE962240F26E21052003F051FE93
:1025200096224FF407710B2003F04BFE96224FF4D6
:1025300010710C2003F045FE96224FF430710D20EF
:1025400003F03FFE962240F25A210E2003F039FE9E
:10255000962240F21B210F2003F033FE03F082FE8F
:10256000601CC4B2502CBDDB10BD10B5002439E096
:10257000962240F2EF11022003F023FE96224FF440
:102580009A71032003F01DFE962240F2951104205B
:1025900003F017FE962240F26E21052003F011FE93
:1025A000962240F21A210B2003F00BFE96224FF4E4
:1025B00008710C2003F005FE962240F2DA210D206E
:1025C00003F0FFFD962240F25F210E2003F0F9FD9B
:1025D00096224FF407710F2003F0F3FD03F042FE43
:1025E000601CC4B2502CC3DB10BD10B500243FE00A
:1025F000962240F20921012003F0E3FD962240F2E9
:10260000EF11022003F0DDFD96224FF49A710320B2
:1026100003F0D7FD962240F29511042003F0D1FD7E
:10262000962240F26E21052003F0CBFD962240F267
:102630001A210B2003F0C5FD96224FF407710C20E0
:1026400003F0BFFD96224FF436710D2003F0B9FD63
:10265000962240F266210E2003F0B3FD962240F24E
:102660003E210F2003F0ADFD03F0FCFD601CC4B261
:10267000502CBDDB10BD10B500243FE096224FF476
:102680000071012003F09DFD96224FF4EA710220B3
:1026900003F097FD96224FF48571032003F091FD1E
:1026A000962240F2C511042003F08BFD96224FF4D0
:1026B0001A71052003F085FD96224FF400710B205E
:1026C00003F07FFD962240F221210C2003F079FDDA
:1026D000962240F2DB210D2003F073FD96224FF489
:1026E00013710E2003F06DFDC82240F21B210F2054
:1026F00003F067FD03F0B6FD601CC4B2502CBDDBD7
:1027000010BD10B500243FE096224FF40071012067
:1027100003F057FD96224FF4EC71022003F051FDB7
:10272000962240F20D11032003F04BFD962240F259
:10273000C511042003F045FD962240F2F711052053
:1027400003F03FFD96224FF400710B2003F039FD9A
:1027500096224FF408710C2003F033FD962240F2CC
:10276000D9210D2003F02DFD962240F24E210E209E
:1027700003F027FD962240F246210F2003F021FDB1
:1027800003F070FD601CC4B2502CBDDB10BD10B551
:1027900000243FE064224FF40071012003F011FD9A
:1027A00064224FF4E171022003F00BFD64224FF428
:1027B000A071032003F005FD64224FF4D3710420BF
:1027C00003F0FFFC642240F23A21052003F0F9FCFB
:1027D00064224FF400710B2003F0F3FC64224FF4E9
:1027E00008710C2003F0EDFC642240F2D9210D2089
:1027F00003F0E7FC642240F24E210E2003F0E1FCDE
:10280000642240F246210F2003F0DBFC03F02AFD96
:10281000601CC4B2502CBDDB10BD10B500243FE0DD
:1028200096224FF4FF71012003F0CBFC962240F278
:10283000BF11022003F0C5FC96224FF4A0710320C3
:1028400003F0BFFC96224FF4D371042003F0B9FCCF
:10285000962240F25A21052003F0B3FC962240F262
:10286000FB110B2003F0ADFC96224FF408710C20F5
:1028700003F0A7FC962240F2D9210D2003F0A1FC21
:10288000962240F24D210E2003F09BFC28224FF4AB
:1028900006710F2003F095FC03F0E4FC601CC4B249
:1028A000502CBDDB10BD10B500243FE096224FF444
:1028B0000071012003F085FC962240F2C111022034
:1028C00003F07FFC96224FF4A071032003F079FC03
:1028D000962240F2AB11042003F073FC962240F2E2
:1028E000F911052003F06DFC962240F2FB110B203C
:1028F00003F067FC96224FF409710C2003F061FC91
:10290000962240F2D7210D2003F05BFC96224FF473
:1029100012710E2003F055FC96224FF401710F2026
:1029200003F04FFC03F09EFC601CC4B2502CBDDBD6
:1029300010BD10B500243FE0962240F2FF110120A7
:1029400003F03FFC96224FF4EF71022003F039FCB4
:10295000962240F22711032003F033FC96224FF415
:10296000D871042003F02DFC96224FF4FD71052050
:1029700003F027FC96224FF4FD710B2003F021FC9D
:10298000962240F212210C2003F01BFC962240F20A
:10299000D6210D2003F015FC962240F252210E2084
:1029A00003F00FFC962240F202210F2003F009FCF5
:1029B00003F058FC601CC4B2502CBDDB10BD10B538
:1029C00000243FE096224FF4FF71012003F0F9FB51
:1029D00096224FF4EF71022003F0F3FB962240F2AF
:1029E0002711032003F0EDFB96224FF4D871042049
:1029F00003F0E7FB96224FF4ED71052003F0E1FBB5
:102A000096224FF4FC710B2003F0DBFB962240F280
:102A100011210C2003F0D5FB96224FF433710D20C9
:102A200003F0CFFB962240F261210E2003F0C9FB98
:102A300096224FF4C2710F2003F0C3FB03F012FC87
:102A4000601CC4B2502CBDDB10BD10B500243FE0AB
:102A5000962240F20521012003F0B3FB96224FF4A9
:102A6000ED71022003F0ADFB962240F22911032004
:102A700003F0A7FB96224FF4D471042003F0A1FBCE
:102A800096224FF4DD71052003F09BFB96224FF454
:102A900001710B2003F095FB962240F215210C20CA
:102AA00003F08FFB96224FF433710D2003F089FB66
:102AB000962240F261210E2003F083FB96224FF410
:102AC000D1710F2003F07DFB03F0CCFB601CC4B27E
:102AD000502CBDDB10BD10B500243FE096224FF412
:102AE0000071012003F06DFB96224FF4F07102207B
:102AF00003F067FB962240F22711032003F061FBED
:102B000096224FF4D971042003F05BFB96224FF418
:102B1000DD71052003F055FB96224FF400710B2068
:102B200003F04FFB962240F23E210C2003F049FBBC
:102B3000962240F2B2210D2003F043FB962240F290
:102B40005A210E2003F03DFB96224FF4E3710F2033
:102B500003F037FB03F086FB601CC4B2502CBDDBD6
:102B600010BD10B500243EE0962240F2FF11012076
:102B700003F027FB962240F2DB11022003F021FB39
:102B8000962240F22311032003F01BFB96224FF400
:102B9000D871042003F015FB28224FF4F2710520B0
:102BA00003F00FFB962240F2FF110B2003F009FB0C
:102BB000962240F23D210C2003F003FB96224FF4B5
:102BC0002C710D2003F0FDFA962291000E2003F0E7
:102BD000F8FA962240F299110F2003F0F2FA03F06E
:102BE00041FB601CC4B2502CBEDB10BD10B50024EC
:102BF0003EE0962240F2FF11012003F0E2FA962215
:102C000040F2D911022003F0DCFA962240F22111A1
:102C1000032003F0D6FA96224FF4D771042003F074
:102C2000D0FA96224FF4FE71052003F0CAFA9622DC
:102C30004FF4FF710B2003F0C4FA962240F23E21BC
:102C40000C2003F0BEFA962240F2B1210D2003F0D1
:102C5000B8FA962291000E2003F0B3FA642240F2F3
:102C600001210F2003F0ADFA03F0FCFA601CC4B29E
:102C7000502CBEDB10BD10B500243FE0962240F280
:102C80000B21012003F09DFA96224FF4EB710220F4
:102C900003F097FA962240F20B11032003F091FA09
:102CA00096224FF4E271042003F08BFA962240F250
:102CB000F711052003F085FA96224FF400710B20DE
:102CC00003F07FFA96224FF409710C2003F079FA91
:102CD000962240F2DB210D2003F073FA962240F297
:102CE0004A210E2003F06DFA96224FF401710F2055
:102CF00003F067FA03F0B6FA601CC4B2642CBDDBC3
:102D000010BD10B500243FE0962240F20B210120B7
:102D100003F057FA96224FF4EA71022003F051FAB9
:102D200096224FF48571032003F04BFA962240F26D
:102D3000C511042003F045FA96224FF41A710520BC
:102D400003F03FFA96224FF400710B2003F039FA9A
:102D5000962240F221210C2003F033FA962240F211
:102D6000DB210D2003F02DFA96224FF413710E2073
:102D700003F027FAC82240F21B210F2003F021FAAA
:102D800003F070FA601CC4B2642CBDDB10BD10B53A
:102D900000243FE0962240F20B21012003F011FABB
:102DA00096224FF4EC71022003F00BFA962240F2C7
:102DB0000D11032003F005FA962240F2C5110420FC
:102DC00003F0FFF9962240F2F711052003F0F9F91C
:102DD000962240F2FF110B2003F0F3F996224FF4F4
:102DE00008710C2003F0EDF9962240F2D9210D2054
:102DF00003F0E7F9962240F24E210E2003F0E1F9AC
:102E0000962240F246210F2003F0DBF903F02AFA64
:102E1000601CC4B2322CBDDB10BD10B500243FE0F5
:102E2000322240F20B21012003F0CBF9322240F292
:102E3000CB11022003F0C5F9322240F23B110320EE
:102E400003F0BFF932224FF4E371042003F0B9F923
:102E5000322240F25221052003F0B3F932224FF41E
:102E600000710B2003F0ADF932224FF4F1710C2008
:102E700003F0A7F9322240F2E7210D2003F0A1F977
:102E8000322240F24E210E2003F09BF9322240F212
:102E900043210F2003F095F903F0E4F9601CC4B25C
:102EA000642CBDDB10BD10B500243FE0642240F26D
:102EB0000B21012003F085F932224FF4E571022045
:102EC00003F07FF9322240F23D11032003F079F93B
:102ED000322240F2C711042003F073F9322240F28B
:102EE0003A21052003F06DF932224FF400710B20D6
:102EF00003F067F932224FF4F0710C2003F061F90E
:102F0000322240F2E5210D2003F05BF932224FF42A
:102F100016710E2003F055F9322240F20F210F20D6
:102F200003F04FF903F09EF9601CC4B2642CBDDBC2
:102F300010BD10B500243FE0962240F20B21012085
:102F400003F03FF996224FF4E871022003F039F9BB
:102F5000962240F23F11032003F033F9962240F20B
:102F6000A511042003F02DF996224FF4FD710520E0
:102F700003F027F996224FF400710B2003F021F99A
:102F8000962240F2DF110C2003F01BF9962240F24A
:102F9000E1210D2003F015F9962240F27D210E204B
:102FA00003F00FF996224FF400710F2003F009F996
:102FB00003F058F9601CC4B2642CBDDB10BD10B521
:102FC00000243FE0962240F20B21012003F0F9F8A3
:102FD000962240F2CB11022003F0F3F896224FF430
:102FE0009F71032003F0EDF896224FF4CF71042077
:102FF00003F0E7F8962240F2E911052003F0E1F82A
:1030000096224FF400710B2003F0DBF8962240F279
:10301000EF110C2003F0D5F896224FF438710D20F3
:1030200003F0CFF8962240F27B210E2003F0C9F87E
:10303000962240F2A3110F2003F0C3F803F012F917
:10304000601CC4B2642CBDDB10BD10B500243FE091
:10305000962240F20B21012003F0B3F8962240F2B1
:10306000CB11022003F0ADF896224FF49F7103209C
:1030700003F0A7F896224FF4CF71042003F0A1F8D3
:1030800096224FF4E171052003F09BF896224FF44D
:1030900000710B2003F095F8962240F2EF110C20FE
:1030A00003F08FF896224FF438710D2003F089F861
:1030B000962240F27B210E2003F083F8962240F204
:1030C000A3110F2003F07DF803F0CCF8601CC4B20C
:1030D000642CBDDB10BD10B500243FE0502240F24F
:1030E0000B21012003F06DF8502240F21E21022036
:1030F00003F067F8502240F21911032003F061F841
:1031000050224FF4D971042003F05BF850224FF4A1
:10311000E071052003F055F850224FF400710B20A8
:1031200003F04FF8502240F235210C2003F049F80B
:10313000502240F2C5210D2003F043F8502240F206
:103140003A210E2003F03DF8502240F2D3110F2017
:1031500003F037F803F086F8601CC4B2642CBDDBC2
:1031600010BD10B500243FE0322240F20B210120B7
:1031700003F027F832224FF40871022003F021F8FF
:10318000322240F21B11032003F01BF832224FF4CD
:10319000D471042003F015F8322240F2F111052019
:1031A00003F00FF832224FF400710B2003F009F8FE
:1031B000322240F236210C2003F003F8322240F292
:1031C000C3210D2002F0FDFF322240F239210E20F2
:1031D00002F0F7FF32224FF4E3710F2002F0F1FF0B
:1031E00003F040F8601CC4B2642CBDDB10BD10B508
:1031F00000243FE096224FF40271012002F0E1FF2B
:10320000962240F23221022002F0DBFF962240F2A9
:103210001911032002F0D5FF962240F27711042005
:1032200002F0CFFF96224FF4FB71052002F0C9FF98
:1032300096224FF400710B2002F0C3FF96224FF448
:1032400008710C2002F0BDFF962240F2B3210D2040
:1032500002F0B7FF962240F25D210E2002F0B1FF8E
:1032600096224FF4FD710F2002F0ABFF02F0FAFF3F
:10327000601CC4B2642CBDDB10BD10B500243FE05F
:10328000962240F20921012002F09BFF962240F293
:103290003221022002F095FF96224FF48D71032017
:1032A00002F08FFF96224FF4BD71042002F089FFD7
:1032B00096224FF41A71052002F083FF962240F205
:1032C000FF110B2002F07DFF96224FF408710C20B5
:1032D00002F077FF96224FF42C710D2002F071FF5F
:1032E000962240F25B210E2002F06BFF962240F204
:1032F00016210F2002F065FF02F0B4FF601CC4B27B
:10330000642CBDDB10BD10B500243FE0322240F23A
:103310000B21012002F055FF32224FF4EC71022004
:1033200002F04FFF322240F20D11032002F049FF5C
:10333000322240F2C511042002F043FF322240F253
:10334000F711052002F03DFF32224FF400710B20EF
:1033500002F037FF32224FF408710C2002F031FFE7
:10336000322240F2D9210D2002F02BFF322240F20E
:1033700053210E2002F025FF322240F246210F2079
:1033800002F01FFF02F06EFF601CC4B2642CBDDBB4
:1033900010BD000010B50120FE490870FEF7FAFBD1
:1033A000FEF73EFCFEF782FCFDF78EF9FEF7C4FC4B
:1033B000FEF708FD10BD10B50020F6490870FEF7B5
:1033C00047FDFEF78BFDFEF7CFFDFDF77DF9FEF71C
:1033D00011FEFEF755FE10BD10B50120ED49087035
:1033E000FFF7D5F9FFF719FAFFF75DFAFDF76CF96A
:1033F000FFF7E5FAFFF729FB10BD10B50020E549FE
:103400000870FFF768FBFFF7ACFBFFF7EFFBFDF77A
:103410005BF9FFF730F9FFF774F910BD10B5002024
:10342000DC490870FEF772FEFEF7B6FEFEF7F9FE05
:10343000FEF73DFFFEF781FFFEF70AFDFEF74EFDAA
:10344000FEF792FDFDF740F9FEF7D4FDFEF718FEFA
:1034500010BD10B50120CF490870FEF7B4FFFEF78C
:10346000F8FFFFF73CF8FFF780F8FFF7BEF8FEF72C
:1034700091FBFEF7D5FBFEF719FCFDF725F9FEF7EA
:103480005BFCFEF79FFC10BD10B50020C149087021
:10349000FEF73CFEFEF780FEFEF7C3FEFEF707FFD9
:1034A000FEF74BFFFEF7D4FCFEF718FDFEF75CFDC0
:1034B000FDF70AF9FEF79EFDFEF7E2FD10BD10B51F
:1034C0000120B4490870FEF77EFFFEF7C2FFFFF748
:1034D00006F8FFF74AF8FFF788F8FEF75BFBFEF700
:1034E0009FFBFEF7E3FBFEF727FCFEF76BFCFEF706
:1034F0006AFFFEF7AEFFFEF7F2FFFFF736F8FFF7C1
:1035000074F8FEF747FBFEF78BFBFEF7CFFBFDF7EA
:10351000DBF8FEF711FCFEF755FC10BD10B50120DD
:103520009C490870FFF779FCFFF7BDFCFFF701FD30
:10353000FDF7CAF8FFF743FDFFF787FD10BD10B593
:10354000002094490870FFF7C6FDFFF70AFEFFF759
:103550004EFEFDF7B9F8FFF790FEFFF7D4FE10BD61
:1035600010B500248B480078012809D1FFF727FA0D
:10357000FFF76BFAFFF7AFFAFFF7F3FAFFF736FB47
:10358000FFF779F8FFF7BDF800243EE028224FF45A
:103590000071012002F015FE28224FF4F67102207E
:1035A00002F00FFE2822D100032002F00AFE28229A
:1035B00040F26B11042002F004FE28224FF40C713B
:1035C000052002F0FEFD28224FF400710B2002F0CE
:1035D000F8FD28224FF408710C2002F0F2FD282299
:1035E00040F2D9210D2002F0ECFD282240F25321B7
:1035F0000E2002F0E6FD282240F246210F2002F0C4
:10360000E0FD02F02FFE601CC4B2642CBEDB00247F
:103610003EE028224FF4F571012002F0D2FD28226D
:10362000D100022002F0CDFD282240F245110320F6
:1036300002F0C7FD28224FF4FC71042002F0C1FD06
:10364000282240F22621052002F0BBFD28224FF45B
:1036500000710B2002F0B5FD28224FF4F1710C200F
:1036600002F0AFFD282240F2E7210D2002F0A9FD73
:10367000282240F24E210E2002F0A3FD282240F223
:1036800043210F2002F09DFD02F0ECFD601CC4B24E
:10369000642CBEDB00243FE0C8224FF4F57101200A
:1036A00002F08FFD962240F28F11022002F089FD78
:1036B000C82240F20711032002F083FD962240F257
:1036C0003A21042002F07DFD962240F2F9110520F6
:1036D00002F077FDC8224FF400710B2002F071FD5B
:1036E000C82240F27B110C2002F06BFD962240F2C2
:1036F000C7210D2002F065FDFA2240F2DE210E20E6
:1037000002F05FFD96224FF4FE710F2002F059FD8A
:1037100002F0A8FD601CC4B2642CBDDB002442E0B2
:10372000C82240F2FD11012002F04BFDC8224FF4E7
:10373000CD71022002F045FDC82240F26511032040
:1037400002F03FFDC8224FF4D571042002F039FD8C
:10375000C8224FF4F971052002F033FDC8224FF45E
:10376000B3710B2002F02DFDC8224FF4B6710C206E
:1037700002F027FDC82240F24D310D2002F021FD5C
:10378000C82240F2E3210E2002F01BFDC82240F2C5
:10379000252101E0010000200F2002F012FD02F0BF
:1037A00061FD601CC4B2642CBADB002444E04FF419
:1037B00096724FF40071012002F003FD4FF49672EF
:1037C00040F2CB11022002F0FCFC4FF496724FF451
:1037D0009F71032002F0F5FC4FF496724FF4CF7105
:1037E000042002F0EEFC4FF496724FF4E1710520D4
:1037F00002F0E7FC96224FF400710B2002F0E1FC8E
:10380000962240F2EF110C2002F0DBFC96224FF4DE
:1038100038710D2002F0D5FC962240F267210E206F
:1038200002F0CFFC96224FF4F0710F2002F0C9FC99
:1038300002F018FD601CC4B2642CB8DB00243FE029
:1038400028224FF40071012002F0BBFC282240F234
:103850001E21022002F0B5FC282240F2191103209B
:1038600002F0AFFC28224FF4D971042002F0A9FC29
:10387000282240F2BD11052002F0A3FC282240F2CC
:1038800016210B2002F09DFC28224FF430710C20F1
:1038900002F097FC282240F2BB210D2002F091FC9F
:1038A00028224FF402710E2002F08BFC28224FF4E4
:1038B000ED710F2002F085FC02F0D4FC601CC4B254
:1038C000642CBDDB00243FE050224FF40071012046
:1038D00002F077FC502240F21E21022002F071FC1F
:1038E000502240F21911032002F06BFC50224FF4D9
:1038F000D971042002F065FC502240F2C511052068
:1039000002F05FFC50224FF400710B2002F059FCD2
:10391000502240F235210C2002F053FC502240F29C
:10392000C5210D2002F04DFC502240F23A210E201C
:1039300002F047FC502240F297110F2002F041FCA8
:1039400002F090FC601CC4B2642CBDDBFEF7C6FA2A
:10395000FEF70AFBFEF78FFEFEF7D3FE002415E00C
:10396000FEF7D4FBFEF718FCFEF75BFCFEF79FFCAE
:10397000FEF7E3FCFEF76CFAFEF7B0FAFEF7F4FA96
:10398000FEF738FBFEF77CFB601CC4B2022CE7DAC2
:1039900000201E4908701E49087010BD10B5FEF7C2
:1039A00012FDFEF756FDFEF79AFDFEF7DEFDFEF76F
:1039B0001CFEFEF7ECFEFEF730FFFEF774FFFEF78D
:1039C000B8FFFCF781FEFEF7FAFFFFF73EF8012093
:1039D0000E49087010BD10B5FEF798FBFEF7DCFB32
:1039E000FEF71FFCFEF763FCFEF7A7FCFFF773F87A
:1039F000FFF7B7F8FFF7FAF8FCF766FEFEF73BFEB5
:103A0000FEF77FFE00200149087010BD0100002074
:103A1000040000202DE9F05F8246504603F08CF947
:103A20008046574A574B02F09FFF06460022564BEE
:103A300002F0C4FE044602F069FF1FFA80FB5846FC
:103A400003F0EAFA8246504603F0C6FA84B22146F1
:103A50004E4801F015FFBDE8F09F2DE9F05F82466A
:103A6000504603F069F98046454A464B02F07CFF18
:103A700006460022444B02F0A1FE044602F046FF37
:103A80001FFA80FB584603F0C7FA8246504603F0FF
:103A9000A3FA84B221463D4801F0F0FEBDE8F09F54
:103AA00010B53B48FFF7B6FF3A48FFF7D6FF10BD09
:103AB00010B53848FFF7AEFF3548FFF7CEFF10BD11
:103AC00000B589B00121022000F0B5FF01210C20D2
:103AD00000F0A4FFC020ADF8040018208DF8070006
:103AE00003208DF8060001A92B4800F0E1FC03201B
:103AF000ADF8040001A9294800F0DAFC42F20F7089
:103B0000ADF81C008F20ADF818000020ADF81E00A5
:103B1000ADF81A0006A91D4801F0BCF86020ADF808
:103B200008000120ADF80A000020ADF80E00ADF845
:103B3000100002A9154801F0EAF802A9134801F0A3
:103B400028F902A9114801F071F902A90F4801F002
:103B5000B8F908210D4801F029FD08210B4801F0B2
:103B60002EFD0821094801F037FD0821074801F022
:103B70003CFD0121054801F0E9FB09B000BD000052
:103B80003D0AD7A3703D164000206F40000400405E
:103B90000000AA420000BE4200080140000C0140A3
:103BA0000948804709480047FEE7FEE7FEE7FEE7D1
:103BB000FEE7FEE7FEE7FEE7FEE7FEE7044805490D
:103BC000054A064B70470000E9080008310100086B
:103BD0007801002078070020780300207803002077
:103BE00031490143314A1160704770B5002100230B
:103BF0000F22C4780CB32D4C246804F4E064C4F59F
:103C0000E064210AC1F10403CA40447804FA03F1D4
:103C10008478144021430901254C0678A155047885
:103C200004F01F050124AC4005786D114FF0E0262B
:103C300006EB8505C5F8004109E0047804F01F058E
:103C40000124AC401B4D0678761145F8264070BD26
:103C5000194A0A400243154B1B1F1A60704739B1BD
:103C6000124A121D12680243104B1B1D1A6006E017
:103C70000E4A121D126882430C4B1B1D1A607047BE
:103C8000042808D14FF0E021096941F004014FF008
:103C9000E022116107E04FF0E021096921F0040101
:103CA0004FF0E022116170470000FA050CED00E0D2
:103CB00000E400E080E100E080FFFF1F00204449B5
:103CC0000860091D0860091D0860091D0860414859
:103CD0003F4914310860704700213D498279002A2C
:103CE0003AD00A46126803689A430B461A600A1DC6
:103CF000126803689A430B1D1A60027911440A681E
:103D000003681A430A60324A0832126803689A4309
:103D10002F4B08331A601A1D126803689A432C4B04
:103D20000C331A604279102A0ED11A1F12680368E8
:103D30001A43274B08331A601A1D126803681A4386
:103D4000234B0C331A600DE02149427911440A6873
:103D500003681A430A6005E0027911440A6803689F
:103D60009A430A6070470021016001710C21417182
:103D70000021817170471649103109680143144AC6
:103D800010321160704701460020114A1432126847
:103D90000A4201D0012000E0002070470C49143194
:103DA00008607047014600200022094B1B6803EAA7
:103DB0000102074B14331B680B4202D00AB10120E9
:103DC00000E000207047024914310860704700008D
:103DD00000040140FFFF0F0030B943F2DB014FF058
:103DE000204242F8201005E043F2D2014FF0204279
:103DF00042F820106FF07042411C4FF0204343F80E
:103E0000212011461A4602EB8002C2F804117047C5
:103E100010280AD118214FF0204211664021516626
:103E20004FF0FC319166D16610E01821F84A11601C
:103E30004FF040014FF02042C2F884104FF0FC31A7
:103E4000F44A11604FF02042C2F88C1070471820DD
:103E5000F14908604FF000004FF02041C1F8A40084
:103E60004FF0FC30ED49086001F10401086001F1F8
:103E7000040108607047D0E901121143C268114380
:103E8000026911434269114382691143C2691143B6
:103E9000026A1143426A1143826A1143C26A1143A2
:103EA000026B11434FF02043026843F822108168EF
:103EB000082908D11A46016852F8211041F0400142
:103EC000026843F82210416B0968426B526841EA6C
:103ED0000211426B926841EA0221426B928941EAE7
:103EE0000241426B128A41EA0251426B127D41EA61
:103EF0000261426B926911430268521C4FF02043E9
:103F000043F82210C16AB1F5804F1AD1816B09685C
:103F1000826B526841EA0211826B926841EA022187
:103F2000826B128A41EA0251826B127D41EA026180
:103F3000826B92691143026803EB8202C2F804119A
:103F400008E06FF070414FF02043026803EB8202FB
:103F5000C2F80411704730B50021002200234468E4
:103F600044F0080485682C43C5682C4305692C433C
:103F7000456944EA4524856944EA4531C4692468B1
:103F8000C5696D6844EA0524C5692D8944EA05447C
:103F9000C5692D7B44EA0562046A2468056A6D6878
:103FA00044EA0524056A2D8944EA0544056A2D7B07
:103FB00044EA05630468102C05D14FF020442166C3
:103FC000A266E36607E0924C21604FF02044C4F8FB
:103FD0008820934C236030BD016841F01001426895
:103FE00041EA4221826841EA42318B4A1160C1684C
:103FF0000968C268526841EA0221C268128941EA2E
:104000000241C268127B41EA0261844A116001697F
:1040100009680269526841EA02210269128941EA8B
:1040200002410269127B41EA02617E4A11604169E4
:1040300009684269526841EA02214269128941EAEB
:1040400002414269127B41EA02614FF02042C2F80C
:10405000B0107047002101600221416000218160A1
:10406000C160016141618161C16101624FF48051B0
:104070004162490081620021C16201630F21426BEC
:104080001160426B5160FF21426B91600F21426BC6
:10409000D160426B1161426B51610021426B9161B1
:1040A0000F21826B1160826B5160FF21826B9160E6
:1040B0000F21826BD160826B1161826B5161002193
:1040C000826B916170471021016000214160816025
:1040D000C160016141618161FC21C2691160C269F5
:1040E0005160C2699160C269D160026A1160026A5E
:1040F0005160026A9160026AD160704700210160DC
:1041000041608160FC21C2681160C2685160C26870
:104110009160C268D16002691160026951600269F0
:1041200091600269D16042691160426951604269DF
:1041300091604269D160704751B14FF0204252F80E
:10414000202042F001024FF0204343F8202009E0F4
:104150004FF0204252F82020334B1A404FF02043BA
:1041600043F82020704799B1102808D14FF0204221
:10417000126E42F004024FF020431A661DE0244AFA
:10418000126842F004024FF02043C3F8802014E08C
:10419000102809D14FF02042126E234BDB1E1A402B
:1041A0004FF020431A6608E0194A12681F4B02EAD2
:1041B00003024FF02043C3F88020704740B11649F6
:1041C000096841F004014FF02042C2F8A01008E055
:1041D00011490968154A01EA02014FF02042C2F86C
:1041E000A010704799B1102808D14FF02042126EEC
:1041F00042F040024FF020431A662DE0044A126854
:1042000042F040024FF02043C3F8802024E00FE04A
:10421000800000A0880000A0A00000A0A80000A0CE
:104220008C0000A0AC0000A0FEFF0F00FBFF0F0001
:10423000102808D14FF02042126E684B1A404FF000
:1042400020431A6608E0664A1268644B02EA0302D9
:104250004FF02043C3F8802070470146002010290A
:1042600003D14FF02042506F01E05E4A1068704762
:1042700010B5F2B1102807D14FF020435B6E0B430D
:104280004FF02044636632E0B0F5807F08D1564B92
:104290001B6843EA01034FF02044C4F8843026E051
:1042A000524B1B6843EA01034FF02044C4F8A4308A
:1042B0001DE0102807D14FF020435B6E8B434FF079
:1042C0002044636613E0B0F5807F08D1464B1B683D
:1042D00023EA01034FF02044C4F8843007E0434B45
:1042E0001B6823EA01034FF02044C4F8A43010BD3A
:1042F00010B5024600200023102A03D14FF02044BD
:10430000636E07E0B2F5807F02D1374C236801E08D
:10431000364C23680B4201D0012000E0002010BD84
:10432000102807D14FF02042526E8A434FF02043AD
:104330005A6613E0B0F5807F08D12B4A126822EA52
:1043400001024FF02043C3F8842007E0274A126897
:1043500022EA01024FF02043C3F8A420704770B551
:1043600002460020002300240025102A03D14FF02C
:104370002046736E07E0B2F5807F02D11A4E336893
:1043800001E01A4E336803EA010403EAD10514B1CF
:104390000DB1012000E0002070BD102808D14FF0C1
:1043A0002042526E22EAD1024FF020435A6613E0B7
:1043B000B0F5807F08D10C4A126822EAD1024FF092
:1043C0002043C3F8842007E0084A126822EAD10299
:1043D0004FF02043C3F8A42070470000BFFF0F0038
:1043E000800000A0940000A0840000A0A40000A011
:1043F00010B50446CA48844208D10121042000F0C7
:1044000027FB0021042000F023FB46E0C54884423E
:1044100008D10121082000F01BFB0021082000F03A
:1044200017FB3AE0C048844208D10121102000F077
:104430000FFB0021102000F00BFB2EE0BB48844254
:1044400008D10121202000F003FB0021202000F0F2
:10445000FFFA22E0B648844208D10121402000F052
:10446000F7FA0021402000F0F3FA16E0B148844248
:1044700008D10121802000F0EBFA0021802000F01B
:10448000E7FA0AE0AC48844207D10121801500F028
:10449000DFFA0021A01500F0DBFA10BD10B50121F4
:1044A000084600F0D5FA0021012000F0D1FA10BD35
:1044B0002DE9F041024600250026002000230024BB
:1044C000002791F803C00CF00F0591F803C01CF011
:1044D000100F03D091F802C04CEA050591F800C016
:1044E000BCF1000F31D0146800202BE04FF0010C1C
:1044F0000CFA00F3B1F800C00CEA03069E4220D18A
:1045000083004FF00F0C0CFA03F7BC4305FA03FCD1
:104510004CEA040491F803C0BCF1280F06D14FF017
:10452000010C0CFA00FCC2F814C00AE091F803C0B8
:10453000BCF1480F05D14FF0010C0CFA00FCC2F899
:1045400010C0401C0828D1D31460B1F800C0BCF1E1
:10455000FF0F34DD546800202EE000F1080C4FF00E
:10456000010808FA0CF3B1F800C00CEA03069E42F9
:1045700021D183004FF00F0C0CFA03F7BC4305FA6E
:1045800003FC4CEA040491F803C0BCF1280F05D1E8
:1045900000F1080C08FA0CF8C2F8148091F803C076
:1045A000BCF1480F07D100F1080C4FF0010808FAE0
:1045B0000CF8C2F81080401C0828CED35460BDE827
:1045C000F0814FF6FF710180022181700421C170DA
:1045D00070470246002093680B4201D0012000E0A2
:1045E000002070470146886880B27047024600206C
:1045F000D3680B4201D0012000E000207047014643
:10460000C86880B2704701617047416170470AB164
:10461000016100E041617047C16070474FF4803232
:104620000A438261816182618269826970470246C0
:104630000020424B18684FF68073184040EA021081
:1046400008433E4B186070473D49C8617047F0B55C
:104650000A46002300240021002500F00046B6F1A0
:10466000004F02D1354EF16901E0344E7168C0F35C
:10467000034583B200F44016B6F5401F08D121F07F
:1046800070612E4E766826F070662C4F7E6012E0C8
:1046900000F48016B6F5801F06D1032606FA05F44D
:1046A000A14341F0706106E0460D360103FA06F6BB
:1046B000B14341F0706122B1460D360103FA06F6AE
:1046C000314300F00046B6F1004F02D11B4EF161BC
:1046D00001E01A4E7160F0BD30B500228B071C0F4F
:1046E0000F2303FA04F2154B08338C1053F82430CF
:1046F0009343124C08348D1044F8253023468C1017
:1047000053F824308C07240F00FA04F423430B4C95
:1047100008348D1044F8253030BD0A4908607047D0
:1047200000080140000C014000100140001401404D
:1047300000180140001C0140002001400000014021
:1047400000002042DC002042DD48006840F001000B
:10475000DB49086008464068DA490840D8494860A3
:1047600008460068D8490840D549086008460068EE
:1047700020F4802008600846406820F4FE0048606D
:104780004FF41F0088607047CD49096821F48031DB
:10479000CB4A11601146096821F480211160B0F5FF
:1047A000803F03D0B0F5802F0ED106E0C4490968E0
:1047B00041F48031C24A116007E0C149096841F4FF
:1047C000A021BF4A116000E000BF00BF704710B5D4
:1047D00001460022002300204A11012A02D1B84CD0
:1047E000236806E0022A02D1B54C236A01E0B44CEA
:1047F000636A01F01F02012494401C4201D0012091
:1048000000E0002010BD38B50020009000240025F5
:1048100000BF3120FFF7DBFF05460098401C0090E9
:104820000098B0F5A06F01D0002DF2D03120FFF735
:10483000CEFF08B1012400E00024204638BD014627
:1048400000209F4A106820F0F80040EAC100106084
:1048500070479E490860704702460020984B586890
:1048600020F47C1042EA01031843954B58607047CE
:1048700096490866704701460020914A506820F02A
:1048800003000843506070478D48406800F00C00FA
:104890007047014600208A4A506820F0F000084323
:1048A0005060704701460020854A506820F4E0605F
:1048B00008435060704701460020814A506820F448
:1048C000605040EAC1005060704729B17C4A527A7A
:1048D00002437B4B5A7204E0794A527A8243784B06
:1048E0005A7270477A490860704701460020744A3E
:1048F000506820F440400843506070470021754ADA
:1049000011706F4A82F82010012802D0042808D1C3
:1049100003E001216F4A117004E005216D4A117016
:1049200000E000BF00BF70476B49086070476449F2
:10493000096A0143624A1162704767494439086055
:10494000704730B500210022002400235C4D6D68C3
:1049500005F00C0121B1042905D0082923D105E077
:104960005E4D056022E05D4D05601FE0544D6D68B1
:1049700005F47012524D6D6805F48034022505EB84
:1049800092421CB9564D554305600BE04C4D6D6885
:1049900015F4003F03D0524D5543056002E04F4DE2
:1049A0005543056002E04D4D056000BF00BF444D1A
:1049B0006D6805F0F00109094A4D6B5C0568DD4042
:1049C00045603F4D6D6805F4E061090A454D6B5C3B
:1049D0004568DD4085603A4D6D6805F46051C90A4F
:1049E000404D6B5C4568DD40C560354D6D6805F434
:1049F0004041890B3C4D6B5CC568B5FBF3F5056127
:104A000030BD29B12E4A526902432D4B5A6104E050
:104A10002B4A526982432A4B5A61704729B1284A6E
:104A200092690243264B9A6104E0254A92698243C7
:104A3000234B9A61704729B1214AD2690243204B26
:104A4000DA6104E01E4AD26982431D4BDA61704785
:104A500029B11B4AD2680243194BDA6004E0184AB4
:104A6000D2688243164BDA60704729B1144A126942
:104A70000243134B1A6104E0114A12698243104B3E
:104A80001A61704714494039086070470F49C8647B
:104A900070470B49C87170470948406A40F0807000
:104AA00007494862704701460020054A92680A4259
:104AB00001D0012000E00020704701498872704752
:104AC000001002400000FFF8FFFFF6FE0000424227
:104AD000D8004242201002408004424200127A0074
:104AE00000093D00B8000020C800002010B50446B1
:104AF000FE48844208D10121C014FFF7A9FF00211C
:104B0000E014FFF7A5FFC4E0B4F1804F08D1012104
:104B10000846FFF7AAFF00210120FFF7A6FFB8E033
:104B2000F348844208D101210220FFF79EFF0021B3
:104B30000220FFF79AFFACE0EE48844208D1012141
:104B40000420FFF792FF00210420FFF78EFFA0E072
:104B5000E948844208D101210820FFF786FF00219F
:104B60000820FFF782FF94E0E448844208D1012145
:104B70001020FFF77AFF00211020FFF776FF88E072
:104B8000DF48844208D101212020FFF76EFF002179
:104B90002020FFF76AFF7CE0DA48844208D1012137
:104BA0004014FFF755FF00216014FFF751FF70E03C
:104BB000D548844209D10121C804FFF749FF0021EB
:104BC0004FF40020FFF744FF63E0D048844209D14E
:104BD00001210805FFF73CFF00214FF48010FFF78B
:104BE00037FF56E0CA48844209D101214805FFF742
:104BF0002FFF00214FF40010FFF72AFF49E0C548BE
:104C0000844208D101214020FFF72FFF00214020DE
:104C1000FFF72BFF3DE0C048844208D101218020EE
:104C2000FFF723FF00218020FFF71FFF31E0BB4883
:104C3000844208D101218015FFF717FF0021A0153C
:104C4000FFF713FF25E0B648844209D1012108048B
:104C5000FFF7FEFE00214FF48030FFF7F9FE18E069
:104C6000B048844209D101214804FFF7F1FE002138
:104C70004FF40030FFF7ECFE0BE0AB48844208D164
:104C800001218804FFF7E4FE00214FF48020FFF7A4
:104C9000DFFE10BD00220288944B98420ED0994B43
:104CA00098420BD0B0F1804F08D0914B984205D07C
:104CB000904B984202D0904B984204D14FF68F739C
:104CC0001A404B881A438D4B984207D08C4B984220
:104CD00004D04FF6FF431A40CB881A4302808B88DA
:104CE00083850B880385814B98420BD0854B984276
:104CF00008D08B4B984205D08A4B984202D08A4B01
:104D0000984201D10B7A038601238382704770B5E4
:104D1000002400220023058C4FF6FE7635400584E2
:104D2000028C8388048B4FF68F752C40B51E2C4067
:104D30000D882C43751E2A400D892A434D882A432D
:104D40006A4DA8420BD06F4DA84208D0744DA842BE
:104D500005D0744DA84202D0734DA84213D14FF62E
:104D6000F7752A404D892A434FF6FB752A408D88F6
:104D70002A434FF6FF652B404FF6FF552B408D8998
:104D80002B43CD892B4383800483CD888586028481
:104D900070BD70B5002400220023058C4FF6EF761D
:104DA00035400584028C8388048B48F6FF752C40BF
:104DB0004FF6FF452C400D884FF6FF7606EA052595
:104DC0002C434FF6DF752A400D8906EA05152A4364
:104DD0004D8806EA05152A43444DA84202D0494DA4
:104DE000A8421DD14FF67F752A404D894FF6FF76B8
:104DF00006EA05152A434FF6BF752A408D8806EA54
:104E000005152A434FF6FF352B404FF2FF752B4017
:104E10008D8906EA85052B43CD8906EA85052B4356
:104E200083800483CD880587028470BD70B500241B
:104E300000220023058C4FF6FF6635400584028C66
:104E40008388848B4FF68F752C404FF6FC752C4071
:104E50000D882C434FF6FF552A400D894FF6FF76FB
:104E600006EA05252A434D8806EA05252A431F4DF3
:104E7000A84202D0234DA8421DD14FF2FF752A400F
:104E80004D894FF6FF7606EA05252A434FF6FF3592
:104E90002A408D8806EA05252A434EF6FF752B40E9
:104EA0004DF6FF752B408D8906EA05152B43CD89FC
:104EB00006EA05152B4383808483CD888587028489
:104EC00070BD70B5002200230024058C4EF6FF76DD
:104ED00035400584038C8488828B48F6FF752A4010
:104EE0004FF6FF452A400D8820E00000002C0140CD
:104EF0000004004000080040000C0040001000408A
:104F00000014004000340140004C014000500140BA
:104F10000054014000180040001C004000200040E8
:104F20000040014000440140004801404FF6FF7638
:104F300006EA05252A434DF6FF752B400D8906EA42
:104F400005352B434D8806EA05352B43FA4DA8421B
:104F500002D0FA4DA84208D14BF6FF752C408D893E
:104F60004FF6FF7606EA85152C4384808283CD8830
:104F7000A0F84050038470BD828B4FF2FF331A407B
:104F80008283828B4FF6FF7303EA01231A438283E5
:104F90007047F0B50C461546002200210026078C0C
:104FA0004EF6FF7C07EA0C070784828B018C4FF6D4
:104FB000FF7707EA043640F6FF473A404FF6FF779F
:104FC00007EA05273A434FF6FF7707EA03373A43E4
:104FD000D94FB8420ED0D94FB8420BD0B0F1804F64
:104FE00008D0D74FB84205D0D64FB84202D0D64FDE
:104FF000B84206D14DF6FF77394046F48057394321
:1050000005E047F6FF57394044F48057394382831F
:105010000184F0BD828B4FF6F3731A408283828B3A
:105020000A4382837047F0B50C46154600220021E2
:105030000026078C4FF6FF6C07EA0C070784828B6B
:10504000018C4FF6FF7707EA04264FF60C773A40BB
:105050004FF6FF7707EA03172F433A43B64FB8429C
:105060000ED0B64FB8420BD0B0F1804F08D0B44F3D
:10507000B84205D0B34FB84202D0B34FB84206D1C0
:105080004FF6FF57394046F48077394305E04FF239
:10509000FF57394044F48077394382830184F0BD5F
:1050A000028B4FF2FF331A400283028B4FF6FF73DD
:1050B00003EA01231A4302837047F0B50C461546F4
:1050C000002200210026078C4FF6EF7C07EA0C0730
:1050D0000784028B018C4FF6FF7707EA041640F62F
:1050E000FF473A404FF6FF7707EA03373A434FF658
:1050F000FF7707EA05273A438F4FB8420ED08F4F0C
:10510000B8420BD0B0F1804F08D08D4FB84205D0D7
:105110008C4FB84202D08C4FB84206D14FF6DF77A1
:10512000394046F01007394305E04FF65F773940C4
:1051300044F01007394302830184F0BD028B4FF61F
:10514000F3731A400283028B0A4302837047F0B55F
:105150000C46154600220021068C4FF6FE773E4095
:105160000684028B018C4FF60C7632407E1C06EAD8
:1051700003162E433243704EB0420ED06F4EB042F3
:105180000BD0B0F1804F08D06D4EB04205D06D4EBF
:10519000B04202D06C4EB04206D14FF6FD7631409F
:1051A00044F00106314305E04FF6F576314044F016
:1051B0000106314302830184F0BD70B505460C46FB
:1051C0005D4885420ED05D4885420BD0B5F1804FD9
:1051D00008D05B48854205D05A48854202D05A48DB
:1051E000854200D100E000BF208850B92389A28801
:1051F00061882846FFF7ABFFE1882846FFF79EFF4E
:1052000025E0208804280AD12389A28861882846BD
:10521000FFF753FFE1882846FFF742FF17E0208899
:1052200008280AD12389A28861882846FFF7FBFE57
:10523000E1882846FFF7EEFE09E02389A28861880D
:105240002846FFF7A6FEE1882846FFF795FE70BDC9
:105250002DE9F04105460C4600260127608808B973
:10526000022600E00026A088012801D1022700E0E4
:1052700001272088A0B92389A28861882846FFF7E2
:1052800066FFE1882846FFF759FF23893A463146F1
:105290002846FFF712FFE1882846FFF701FF13E0D9
:1052A0002389A28861882846FFF707FFE1882846FE
:1052B000FFF7F6FE23893A4631462846FFF747FFB7
:1052C000E1882846FFF73AFFBDE8F0810A884B885D
:1052D0001A438B881A43CB881A430B891A434B898C
:1052E0001A438B891A43A0F8442070474FF6FF7188
:1052F000818000210180C1804180017270470021BE
:10530000018041808180C180018141818181C18191
:105310007047002101804180012181800021C180EE
:10532000018170470021018041808180C18001811D
:105330004181818170470000002C01400034014010
:105340000004004000080040000C004021B1028829
:1053500042F00102028004E002884FF6FE731A4018
:105360000280704731B1B0F8442042F40042A0F806
:10537000442005E0B0F84420C2F30E02A0F8442017
:1053800070471AB183890B43838102E083898B4381
:10539000838170478182704741EA0203A0F8483058
:1053A00070471AB183890B43838102E083898B4361
:1053B0008381704701894FF6F8721140018170476F
:1053C0000A46002101894FF68F731940114301816C
:1053D000704730B504460D4629462046FFF7F0FFDA
:1053E000208940F00700208130BD2DE9F0410446BE
:1053F0000D4616461F46602D06D13B46012231461A
:105400002046FFF75AFE05E03B4601223146204682
:10541000FFF79DFE29462046FFF7D2FF208940F086
:1054200007002081BDE8F08130B50C4600210189DC
:10543000C9B24FF6FF7505EA0325154325432943F5
:10544000018130BD2DE9F04105460E4617469846CC
:10545000002443463A4631462846FFF7E5FF2C89AB
:105460004FF6F870044044F007044FF68F70044084
:1054700044F070042C81BDE8F081F0B504460D467F
:1054800016461F463B46324629462046FFF7CCFFCC
:10549000208940F480402081F0BD018582827047E0
:1054A0000A46002101884FF68F731940114301808D
:1054B0007047F0B50C4615461E4600210022002319
:1054C0000189028B038C4FF6F877394021434FF660
:1054D000FC473A4040F201173A434FF6DD773B4034
:1054E0004FF6FF7707EA06172F433B4301810283FC
:1054F0000384F0BD0A460021018B4FF68F731940DB
:105500001143018370470A460021018B48F6FF735F
:1055100019404FF6FF7303EA0223194301837047D2
:105520000A460021818B4FF68F7319401143818306
:1055300070470A460021818B48F6FF7319404FF6E9
:10554000FF7303EA022319438183704721B1028864
:1055500042F08002028004E002884FF67F731A4016
:105560000280704721B1828842F00402828004E008
:1055700082884FF6FB731A408280704721B182887F
:1055800042F00802828004E082884FF6F7731A40E6
:105590008280704721B1828842F00102828004E05B
:1055A00082884FF6FE731A40828070470A460021B7
:1055B000018B4FF6F77319401143018370470A4678
:1055C0000021018B4FF2FF7319404FF6FF7303EA7E
:1055D00002231943018370470A460021818B4FF64D
:1055E000F77319401143818370470A460021818B6C
:1055F0004FF2FF7319404FF6FF7303EA022319437A
:10560000818370470A460021018B4FF6FB731940D6
:105610001143018370470A460021018B4FF6FF3387
:1056200019404FF6FF7303EA0223194301837047C1
:105630000A460021818B4FF6FB7319401143818389
:1056400070470A460021818B4FF6FF3319404FF611
:10565000FF7303EA02231943818370470A4600213E
:10566000018B4FF67F7319401143018370470A463F
:105670000021018BC1F30E014FF6FF7303EA0223F1
:105680001943018370470A460021818B4FF67F73CF
:1056900019401143818370470A460021818BC1F371
:1056A0000E014FF6FF7303EA02231943818370470B
:1056B0000A460021018C4FF6FD7319401143018405
:1056C00070470A460021018C4FF6F77319401143C9
:1056D000018470470A460021018C4FF6DF731940A0
:1056E0004FF6FF7303EA02131943018470470A4619
:1056F0000021018C4FF67F7319404FF6FF7303EAC8
:1057000002131943018470470A460021018C4FF6A9
:10571000FF5319404FF6FF7303EA02231943018434
:1057200070470A460021018C4FF2FF7319404FF673
:10573000FF7303EA02231943018470470A460021DC
:10574000018C4DF6FF7319404FF6FF7303EA0233E5
:1057500019430184704730B5002301248C40A3B263
:10576000048C9C430484048C02FA01F5ADB22C43F2
:10577000048430BD30B5002304248C40A3B2048CD3
:105780009C430484048C02FA01F5ADB22C430484DA
:1057900030BD70B50346002000241846183001259E
:1057A0008D40ACB21D8CA5431D8409B1082909D1D7
:1057B00000EB6100056825F070050560056815437C
:1057C00005600EE00D1FC5F34E052844056825F45D
:1057D000E045056005684FF6FF7606EA0226354388
:1057E000056070BD21B1028842F00202028004E02F
:1057F00002884FF6FD731A400280704721B102887B
:1058000042F00402028004E002884FF6FB731A4063
:105810000280704721B1828842F08002828004E0D9
:1058200082884FF67F731A408280704702884FF655
:10583000F7731A40028002880A4302807047828808
:105840004FF68F731A40828082880A4382807047A5
:1058500002894FF6F8731A40028102890A430281D5
:10586000704702894FF67F731A40028102890A430A
:1058700002817047818470478185704781867047B7
:105880000187704781877047A0F8401070470288F1
:105890004FF6FF431A40028002880A430280704795
:1058A0000146888E70470146088F70470146888FF1
:1058B00070470146B1F8400070470146888C704738
:1058C0000146088D704702460020138A0B4201D022
:1058D000012000E000207047CA430282704730B5C3
:1058E0000246002000230024158A05EA0103958959
:1058F00005EA010413B10CB1012000E0002030BD25
:10590000CA4302827047000010B50446FB48844237
:1059100009D101218803FFF79BF800214FF4804053
:10592000FFF796F832E0F648844209D10121480495
:10593000FFF79BF800214FF40030FFF796F825E0C1
:10594000F048844209D101218804FFF78EF8002134
:105950004FF48020FFF789F818E0EB48844209D122
:105960000121C804FFF781F800214FF40020FFF760
:105970007CF80BE0E548844208D101210805FFF7D7
:1059800074F800214FF48010FFF76FF810BD2DE977
:10599000F04786B005460E460024A24600BFA14649
:1059A0000027B08900B100BF2F462C8A4CF6FF704B
:1059B0000440F08804432C82AC894EF6F310044076
:1059C000B08831890843718908430443AC81AC8AAB
:1059D0004FF6FF400440B0890443AC8201A8FEF7B3
:1059E000B0FFC648874202D1DDF810A001E0DDF823
:1059F0000CA0A88910F4004F08D00AEBCA0000EBF5
:105A00000A1031684900B0FBF1F807E00AEBCA0060
:105A100000EB0A1031688900B0FBF1F86420B8FB94
:105A2000F0F004012009642101FB1089A88910F419
:105A3000004F08D0322000EBC900B0FBF1F000F0BD
:105A40000700044308E0322000EB09106421B0FB9A
:105A5000F1F000F00F0004432C8106B0BDE8F087A0
:105A60004FF41651016000218180C18001810C2119
:105A7000418100218181704710B502460020108AC3
:105A80004FF2FF0318400B884C8823438C88234334
:105A9000CC8823431843108210BD0021018041802F
:105AA0008180C180704721B1828942F40052828195
:105AB00004E082894DF6FF731A4082817047F0B589
:105AC00003460024002600250020A1F510676A3F48
:105AD00000D100BF1846C1F3421401F01F06012790
